{
  "contractName": "CarSaleAuction",
  "abi": [
    {
      "constant": false,
      "inputs": [],
      "name": "unpause",
      "outputs": [],
      "payable": false,
      "stateMutability": "nonpayable",
      "type": "function"
    },
    {
      "constant": true,
      "inputs": [],
      "name": "paused",
      "outputs": [
        {
          "name": "",
          "type": "bool"
        }
      ],
      "payable": false,
      "stateMutability": "view",
      "type": "function"
    },
    {
      "constant": false,
      "inputs": [],
      "name": "withdrawBalance",
      "outputs": [],
      "payable": false,
      "stateMutability": "nonpayable",
      "type": "function"
    },
    {
      "constant": true,
      "inputs": [
        {
          "name": "_tokenId",
          "type": "uint256"
        }
      ],
      "name": "getAuction",
      "outputs": [
        {
          "name": "seller",
          "type": "address"
        },
        {
          "name": "startingPrice",
          "type": "uint256"
        },
        {
          "name": "endingPrice",
          "type": "uint256"
        },
        {
          "name": "duration",
          "type": "uint256"
        },
        {
          "name": "startedAt",
          "type": "uint256"
        }
      ],
      "payable": false,
      "stateMutability": "view",
      "type": "function"
    },
    {
      "constant": true,
      "inputs": [],
      "name": "ownerCut",
      "outputs": [
        {
          "name": "",
          "type": "uint256"
        }
      ],
      "payable": false,
      "stateMutability": "view",
      "type": "function"
    },
    {
      "constant": false,
      "inputs": [],
      "name": "pause",
      "outputs": [],
      "payable": false,
      "stateMutability": "nonpayable",
      "type": "function"
    },
    {
      "constant": false,
      "inputs": [
        {
          "name": "_tokenId",
          "type": "uint256"
        }
      ],
      "name": "cancelAuctionWhenPaused",
      "outputs": [],
      "payable": false,
      "stateMutability": "nonpayable",
      "type": "function"
    },
    {
      "constant": true,
      "inputs": [],
      "name": "owner",
      "outputs": [
        {
          "name": "",
          "type": "address"
        }
      ],
      "payable": false,
      "stateMutability": "view",
      "type": "function"
    },
    {
      "constant": true,
      "inputs": [
        {
          "name": "contractName",
          "type": "string"
        },
        {
          "name": "migrationId",
          "type": "string"
        }
      ],
      "name": "isMigrated",
      "outputs": [
        {
          "name": "",
          "type": "bool"
        }
      ],
      "payable": false,
      "stateMutability": "view",
      "type": "function"
    },
    {
      "constant": false,
      "inputs": [
        {
          "name": "_sender",
          "type": "address"
        }
      ],
      "name": "initialize",
      "outputs": [],
      "payable": false,
      "stateMutability": "nonpayable",
      "type": "function"
    },
    {
      "constant": true,
      "inputs": [
        {
          "name": "_tokenId",
          "type": "uint256"
        }
      ],
      "name": "getCurrentPrice",
      "outputs": [
        {
          "name": "",
          "type": "uint256"
        }
      ],
      "payable": false,
      "stateMutability": "view",
      "type": "function"
    },
    {
      "constant": false,
      "inputs": [
        {
          "name": "_nftAddress",
          "type": "address"
        },
        {
          "name": "_commission",
          "type": "uint256"
        }
      ],
      "name": "initialize",
      "outputs": [],
      "payable": false,
      "stateMutability": "nonpayable",
      "type": "function"
    },
    {
      "constant": true,
      "inputs": [],
      "name": "nonFungibleContract",
      "outputs": [
        {
          "name": "",
          "type": "address"
        }
      ],
      "payable": false,
      "stateMutability": "view",
      "type": "function"
    },
    {
      "constant": false,
      "inputs": [
        {
          "name": "newOwner",
          "type": "address"
        }
      ],
      "name": "transferOwnership",
      "outputs": [],
      "payable": false,
      "stateMutability": "nonpayable",
      "type": "function"
    },
    {
      "anonymous": false,
      "inputs": [
        {
          "indexed": false,
          "name": "tokenId",
          "type": "uint256"
        },
        {
          "indexed": false,
          "name": "startingPrice",
          "type": "uint256"
        },
        {
          "indexed": false,
          "name": "endingPrice",
          "type": "uint256"
        },
        {
          "indexed": false,
          "name": "duration",
          "type": "uint256"
        }
      ],
      "name": "AuctionCreated",
      "type": "event"
    },
    {
      "anonymous": false,
      "inputs": [
        {
          "indexed": false,
          "name": "tokenId",
          "type": "uint256"
        },
        {
          "indexed": false,
          "name": "totalPrice",
          "type": "uint256"
        },
        {
          "indexed": false,
          "name": "winner",
          "type": "address"
        }
      ],
      "name": "AuctionSuccessful",
      "type": "event"
    },
    {
      "anonymous": false,
      "inputs": [
        {
          "indexed": false,
          "name": "tokenId",
          "type": "uint256"
        }
      ],
      "name": "AuctionCancelled",
      "type": "event"
    },
    {
      "anonymous": false,
      "inputs": [],
      "name": "Pause",
      "type": "event"
    },
    {
      "anonymous": false,
      "inputs": [],
      "name": "Unpause",
      "type": "event"
    },
    {
      "anonymous": false,
      "inputs": [
        {
          "indexed": true,
          "name": "previousOwner",
          "type": "address"
        },
        {
          "indexed": true,
          "name": "newOwner",
          "type": "address"
        }
      ],
      "name": "OwnershipTransferred",
      "type": "event"
    },
    {
      "anonymous": false,
      "inputs": [
        {
          "indexed": false,
          "name": "contractName",
          "type": "string"
        },
        {
          "indexed": false,
          "name": "migrationId",
          "type": "string"
        }
      ],
      "name": "Migrated",
      "type": "event"
    },
    {
      "constant": false,
      "inputs": [],
      "name": "isCarSaleAuction",
      "outputs": [
        {
          "name": "",
          "type": "bool"
        }
      ],
      "payable": false,
      "stateMutability": "nonpayable",
      "type": "function"
    },
    {
      "constant": false,
      "inputs": [
        {
          "name": "_carContract",
          "type": "address"
        },
        {
          "name": "_treasurerCommission",
          "type": "uint256"
        }
      ],
      "name": "init",
      "outputs": [],
      "payable": false,
      "stateMutability": "nonpayable",
      "type": "function"
    },
    {
      "constant": false,
      "inputs": [
        {
          "name": "_tokenId",
          "type": "uint256"
        },
        {
          "name": "_startingPrice",
          "type": "uint256"
        },
        {
          "name": "_endingPrice",
          "type": "uint256"
        },
        {
          "name": "_duration",
          "type": "uint256"
        },
        {
          "name": "_seller",
          "type": "address"
        }
      ],
      "name": "createAuction",
      "outputs": [],
      "payable": false,
      "stateMutability": "nonpayable",
      "type": "function"
    },
    {
      "constant": false,
      "inputs": [
        {
          "name": "_tokenId",
          "type": "uint256"
        }
      ],
      "name": "bid",
      "outputs": [],
      "payable": true,
      "stateMutability": "payable",
      "type": "function"
    },
    {
      "constant": false,
      "inputs": [
        {
          "name": "_tokenId",
          "type": "uint256"
        }
      ],
      "name": "cancelAuction",
      "outputs": [],
      "payable": false,
      "stateMutability": "nonpayable",
      "type": "function"
    },
    {
      "constant": false,
      "inputs": [
        {
          "name": "_seller",
          "type": "address"
        },
        {
          "name": "_carLimitation",
          "type": "uint256"
        }
      ],
      "name": "clearAll",
      "outputs": [],
      "payable": false,
      "stateMutability": "nonpayable",
      "type": "function"
    },
    {
      "constant": false,
      "inputs": [
        {
          "name": "_seller",
          "type": "address"
        },
        {
          "name": "_tokenId",
          "type": "uint256"
        }
      ],
      "name": "clearOne",
      "outputs": [],
      "payable": false,
      "stateMutability": "nonpayable",
      "type": "function"
    }
  ],
  "bytecode": "0x60806040526000600160146101000a81548160ff02191690831515021790555034801561002b57600080fd5b50612e858061003b6000396000f30060806040526004361061011d576000357c0100000000000000000000000000000000000000000000000000000000900463ffffffff1680630b7edea31461012257806327ebe40a1461016f578063399ae724146101da5780633f4ba83a14610227578063454a2ab31461023e5780635c975abb1461025e5780635fd8c7101461028d5780636c772f57146102a457806378bd7935146102d357806383b5ff8b1461035c5780638456cb5914610387578063878eb3681461039e5780638da5cb5b146103cb57806396b5a755146104225780639adbf5831461044f578063c0bac1a81461049c578063c4d66de814610563578063c55d0f56146105a6578063cd6dc687146105e7578063dd1b7a0f14610634578063f2fde38b1461068b575b600080fd5b34801561012e57600080fd5b5061016d600480360381019080803573ffffffffffffffffffffffffffffffffffffffff169060200190929190803590602001909291905050506106ce565b005b34801561017b57600080fd5b506101d860048036038101908080359060200190929190803590602001909291908035906020019092919080359060200190929190803573ffffffffffffffffffffffffffffffffffffffff169060200190929190505050610964565b005b3480156101e657600080fd5b50610225600480360381019080803573ffffffffffffffffffffffffffffffffffffffff16906020019092919080359060200190929190505050610cc1565b005b34801561023357600080fd5b5061023c610f8a565b005b61025c6004803603810190808035906020019092919050505061104a565b005b34801561026a57600080fd5b50610273611196565b604051808215151515815260200191505060405180910390f35b34801561029957600080fd5b506102a26111a9565b005b3480156102b057600080fd5b506102b96112b5565b604051808215151515815260200191505060405180910390f35b3480156102df57600080fd5b506102fe600480360381019080803590602001909291905050506112be565b604051808673ffffffffffffffffffffffffffffffffffffffff1673ffffffffffffffffffffffffffffffffffffffff1681526020018581526020018481526020018381526020018281526020019550505050505060405180910390f35b34801561036857600080fd5b506103716113e1565b6040518082815260200191505060405180910390f35b34801561039357600080fd5b5061039c6113e7565b005b3480156103aa57600080fd5b506103c9600480360381019080803590602001909291905050506114a7565b005b3480156103d757600080fd5b506103e061157b565b604051808273ffffffffffffffffffffffffffffffffffffffff1673ffffffffffffffffffffffffffffffffffffffff16815260200191505060405180910390f35b34801561042e57600080fd5b5061044d600480360381019080803590602001909291905050506115a1565b005b34801561045b57600080fd5b5061049a600480360381019080803573ffffffffffffffffffffffffffffffffffffffff16906020019092919080359060200190929190505050611647565b005b3480156104a857600080fd5b50610549600480360381019080803590602001908201803590602001908080601f0160208091040260200160405190810160405280939291908181526020018383808284378201915050505050509192919290803590602001908201803590602001908080601f01602080910402602001604051908101604052809392919081815260200183838082843782019150505050505091929192905050506118f1565b604051808215151515815260200191505060405180910390f35b34801561056f57600080fd5b506105a4600480360381019080803573ffffffffffffffffffffffffffffffffffffffff1690602001909291905050506119dc565b005b3480156105b257600080fd5b506105d160048036038101908080359060200190929190505050611c62565b6040518082815260200191505060405180910390f35b3480156105f357600080fd5b50610632600480360381019080803573ffffffffffffffffffffffffffffffffffffffff16906020019092919080359060200190929190505050611c9f565b005b34801561064057600080fd5b50610649611f9f565b604051808273ffffffffffffffffffffffffffffffffffffffff1673ffffffffffffffffffffffffffffffffffffffff16815260200191505060405180910390f35b34801561069757600080fd5b506106cc600480360381019080803573ffffffffffffffffffffffffffffffffffffffff169060200190929190505050611fc5565b005b600080600080600560009054906101000a900473ffffffffffffffffffffffffffffffffffffffff1673ffffffffffffffffffffffffffffffffffffffff163373ffffffffffffffffffffffffffffffffffffffff16141515610799576040517f08c379a00000000000000000000000000000000000000000000000000000000081526004018080602001828103825260118152602001807f4e6f742047616d6520436f6e747261637400000000000000000000000000000081525060200191505060405180910390fd5b600660008773ffffffffffffffffffffffffffffffffffffffff1673ffffffffffffffffffffffffffffffffffffffff1681526020019081526020016000209350600092505b838054905083101561095c5783838154811015156107f957fe5b906000526020600020015491508482141561094f5760046000838152602001908152602001600020905060008160020160089054906101000a900467ffffffffffffffff1667ffffffffffffffff1611801561089057508060020160009054906101000a900467ffffffffffffffff168160020160089054906101000a900467ffffffffffffffff160167ffffffffffffffff1642115b1561094e578573ffffffffffffffffffffffffffffffffffffffff168160000160009054906101000a900473ffffffffffffffffffffffffffffffffffffffff1673ffffffffffffffffffffffffffffffffffffffff1614156108f8576108f7828761211d565b5b83600185805490500381548110151561090d57fe5b9060005260206000200154848481548110151561092657fe5b9060005260206000200181905550838054809190600190036109489190612d8a565b5061095c565b5b82806001019350506107df565b505050505050565b61096c612db6565b600560009054906101000a900473ffffffffffffffffffffffffffffffffffffffff1673ffffffffffffffffffffffffffffffffffffffff163373ffffffffffffffffffffffffffffffffffffffff16141515610a31576040517f08c379a00000000000000000000000000000000000000000000000000000000081526004018080602001828103825260118152602001807f4e6f742047616d6520436f6e747261637400000000000000000000000000000081525060200191505060405180910390fd5b846fffffffffffffffffffffffffffffffff1685141515610aba576040517f08c379a000000000000000000000000000000000000000000000000000000000815260040180806020018281038252601d8152602001807f496e636f7272656374206368616e676520746f2064696d656e73696f6e00000081525060200191505060405180910390fd5b836fffffffffffffffffffffffffffffffff1684141515610b43576040517f08c379a000000000000000000000000000000000000000000000000000000000815260040180806020018281038252601d8152602001807f496e636f7272656374206368616e676520746f2064696d656e73696f6e00000081525060200191505060405180910390fd5b8267ffffffffffffffff1683141515610bc4576040517f08c379a000000000000000000000000000000000000000000000000000000000815260040180806020018281038252601d8152602001807f496e636f7272656374206368616e676520746f2064696d656e73696f6e00000081525060200191505060405180910390fd5b610bce828761216b565b60a0604051908101604052808373ffffffffffffffffffffffffffffffffffffffff168152602001866fffffffffffffffffffffffffffffffff168152602001856fffffffffffffffffffffffffffffffff1681526020018467ffffffffffffffff1681526020014267ffffffffffffffff168152509050610c508682612280565b600660008373ffffffffffffffffffffffffffffffffffffffff1673ffffffffffffffffffffffffffffffffffffffff168152602001908152602001600020869080600181540180825580915050906001820390600052602060002001600090919290919091505550505050505050565b6040805190810160405280600e81526020017f43617253616c6541756374696f6e0000000000000000000000000000000000008152506040805190810160405280600581526020017f312e302e30000000000000000000000000000000000000000000000000000000815250610d3782826118f1565b151515610d4357600080fd5b610d4d8484611c9f565b83600560006101000a81548173ffffffffffffffffffffffffffffffffffffffff021916908373ffffffffffffffffffffffffffffffffffffffff1602179055507fdd117a11c22118c9dee4b5a67ce578bc44529dce21ee0ccc439588fbb9fb4ea38282604051808060200180602001838103835285818151815260200191508051906020019080838360005b83811015610df5578082015181840152602081019050610dda565b50505050905090810190601f168015610e225780820380516001836020036101000a031916815260200191505b50838103825284818151815260200191508051906020019080838360005b83811015610e5b578082015181840152602081019050610e40565b50505050905090810190601f168015610e885780820380516001836020036101000a031916815260200191505b5094505050505060405180910390a160016000836040518082805190602001908083835b602083101515610ed15780518252602082019150602081019050602083039250610eac565b6001836020036101000a0380198251168184511680821785525050505050509050019150509081526020016040518091039020826040518082805190602001908083835b602083101515610f3a5780518252602082019150602081019050602083039250610f15565b6001836020036101000a038019825116818451168082178552505050505050905001915050908152602001604051809103902060006101000a81548160ff02191690831515021790555050505050565b600160009054906101000a900473ffffffffffffffffffffffffffffffffffffffff1673ffffffffffffffffffffffffffffffffffffffff163373ffffffffffffffffffffffffffffffffffffffff16141515610fe657600080fd5b600160149054906101000a900460ff16151561100157600080fd5b6000600160146101000a81548160ff0219169083151502179055507f7805862f689e2f13df9f062ff482ad3ad112aca9e0847911ed832e158c525b3360405160405180910390a1565b60008060006004600085815260200190815260200160002060000160009054906101000a900473ffffffffffffffffffffffffffffffffffffffff16925061109284346124f4565b915061109e33856126a1565b600560009054906101000a900473ffffffffffffffffffffffffffffffffffffffff1673ffffffffffffffffffffffffffffffffffffffff16635e8be190856040518263ffffffff167c010000000000000000000000000000000000000000000000000000000002815260040180828152602001915050606060405180830381600087803b15801561112f57600080fd5b505af1158015611143573d6000803e3d6000fd5b505050506040513d606081101561115957600080fd5b81019080805190602001909291908051906020019092919080519060200190929190505050909150508091505061119083856127b6565b50505050565b600160149054906101000a900460ff1681565b600080600260009054906101000a900473ffffffffffffffffffffffffffffffffffffffff169150600160009054906101000a900473ffffffffffffffffffffffffffffffffffffffff1673ffffffffffffffffffffffffffffffffffffffff163373ffffffffffffffffffffffffffffffffffffffff16148061125857508173ffffffffffffffffffffffffffffffffffffffff163373ffffffffffffffffffffffffffffffffffffffff16145b151561126357600080fd5b8173ffffffffffffffffffffffffffffffffffffffff166108fc3073ffffffffffffffffffffffffffffffffffffffff16319081150290604051600060405180830381858888f1935050505090505050565b60006001905090565b6000806000806000806004600088815260200190815260200160002090506112e581612894565b15156112f057600080fd5b8060000160009054906101000a900473ffffffffffffffffffffffffffffffffffffffff168160010160009054906101000a90046fffffffffffffffffffffffffffffffff168260010160109054906101000a90046fffffffffffffffffffffffffffffffff168360020160009054906101000a900467ffffffffffffffff168460020160089054906101000a900467ffffffffffffffff16836fffffffffffffffffffffffffffffffff169350826fffffffffffffffffffffffffffffffff1692508167ffffffffffffffff1691508067ffffffffffffffff169050955095509550955095505091939590929450565b60035481565b600160009054906101000a900473ffffffffffffffffffffffffffffffffffffffff1673ffffffffffffffffffffffffffffffffffffffff163373ffffffffffffffffffffffffffffffffffffffff1614151561144357600080fd5b600160149054906101000a900460ff1615151561145f57600080fd5b60018060146101000a81548160ff0219169083151502179055507f6985a02210a168e66602d3235cb6db0e70f92b3ba4d376a33c0f3d9434bff62560405160405180910390a1565b6000600160149054906101000a900460ff1615156114c457600080fd5b600160009054906101000a900473ffffffffffffffffffffffffffffffffffffffff1673ffffffffffffffffffffffffffffffffffffffff163373ffffffffffffffffffffffffffffffffffffffff1614151561152057600080fd5b60046000838152602001908152602001600020905061153e81612894565b151561154957600080fd5b611577828260000160009054906101000a900473ffffffffffffffffffffffffffffffffffffffff1661211d565b5050565b600160009054906101000a900473ffffffffffffffffffffffffffffffffffffffff1681565b6000806004600084815260200190815260200160002091506115c282612894565b15156115cd57600080fd5b8160000160009054906101000a900473ffffffffffffffffffffffffffffffffffffffff1690508073ffffffffffffffffffffffffffffffffffffffff163373ffffffffffffffffffffffffffffffffffffffff1614151561162e57600080fd5b611638838261211d565b61164281846127b6565b505050565b6000806000806000600560009054906101000a900473ffffffffffffffffffffffffffffffffffffffff1673ffffffffffffffffffffffffffffffffffffffff163373ffffffffffffffffffffffffffffffffffffffff16141515611714576040517f08c379a00000000000000000000000000000000000000000000000000000000081526004018080602001828103825260118152602001807f4e6f742047616d6520436f6e747261637400000000000000000000000000000081525060200191505060405180910390fd5b600660008873ffffffffffffffffffffffffffffffffffffffff1673ffffffffffffffffffffffffffffffffffffffff1681526020019081526020016000209450600092505b84805490508310156118e85785841115611773576118e8565b848381548110151561178157fe5b9060005260206000200154915060046000838152602001908152602001600020905060008160020160089054906101000a900467ffffffffffffffff1667ffffffffffffffff1611801561181057508060020160009054906101000a900467ffffffffffffffff168160020160089054906101000a900467ffffffffffffffff160167ffffffffffffffff1642115b156118d3578673ffffffffffffffffffffffffffffffffffffffff168160000160009054906101000a900473ffffffffffffffffffffffffffffffffffffffff1673ffffffffffffffffffffffffffffffffffffffff16141561187857611877828861211d565b5b84600186805490500381548110151561188d57fe5b906000526020600020015485848154811015156118a657fe5b9060005260206000200181905550848054809190600190036118c89190612d8a565b508280600190039350505b8380600101945050828060010193505061175a565b50505050505050565b600080836040518082805190602001908083835b60208310151561192a5780518252602082019150602081019050602083039250611905565b6001836020036101000a0380198251168184511680821785525050505050509050019150509081526020016040518091039020826040518082805190602001908083835b602083101515611993578051825260208201915060208101905060208303925061196e565b6001836020036101000a038019825116818451168082178552505050505050905001915050908152602001604051809103902060009054906101000a900460ff16905092915050565b6040805190810160405280600881526020017f5061757361626c650000000000000000000000000000000000000000000000008152506040805190810160405280600581526020017f312e392e30000000000000000000000000000000000000000000000000000000815250611a5282826118f1565b151515611a5e57600080fd5b611a67836128c2565b7fdd117a11c22118c9dee4b5a67ce578bc44529dce21ee0ccc439588fbb9fb4ea38282604051808060200180602001838103835285818151815260200191508051906020019080838360005b83811015611ace578082015181840152602081019050611ab3565b50505050905090810190601f168015611afb5780820380516001836020036101000a031916815260200191505b50838103825284818151815260200191508051906020019080838360005b83811015611b34578082015181840152602081019050611b19565b50505050905090810190601f168015611b615780820380516001836020036101000a031916815260200191505b5094505050505060405180910390a160016000836040518082805190602001908083835b602083101515611baa5780518252602082019150602081019050602083039250611b85565b6001836020036101000a0380198251168184511680821785525050505050509050019150509081526020016040518091039020826040518082805190602001908083835b602083101515611c135780518252602082019150602081019050602083039250611bee565b6001836020036101000a038019825116818451168082178552505050505050905001915050908152602001604051809103902060006101000a81548160ff021916908315150217905550505050565b600080600460008481526020019081526020016000209050611c8381612894565b1515611c8e57600080fd5b611c9781612b80565b915050919050565b60006040805190810160405280600d81526020017f436f6d6d6f6e41756374696f6e000000000000000000000000000000000000008152506040805190810160405280600581526020017f312e302e30000000000000000000000000000000000000000000000000000000815250611d1782826118f1565b151515611d2357600080fd5b611d2c336119dc565b6127108411151515611d3d57600080fd5b8360038190555084925082600260006101000a81548173ffffffffffffffffffffffffffffffffffffffff021916908373ffffffffffffffffffffffffffffffffffffffff16021790555060018060146101000a81548160ff0219169083151502179055507fdd117a11c22118c9dee4b5a67ce578bc44529dce21ee0ccc439588fbb9fb4ea38282604051808060200180602001838103835285818151815260200191508051906020019080838360005b83811015611e09578082015181840152602081019050611dee565b50505050905090810190601f168015611e365780820380516001836020036101000a031916815260200191505b50838103825284818151815260200191508051906020019080838360005b83811015611e6f578082015181840152602081019050611e54565b50505050905090810190601f168015611e9c5780820380516001836020036101000a031916815260200191505b5094505050505060405180910390a160016000836040518082805190602001908083835b602083101515611ee55780518252602082019150602081019050602083039250611ec0565b6001836020036101000a0380198251168184511680821785525050505050509050019150509081526020016040518091039020826040518082805190602001908083835b602083101515611f4e5780518252602082019150602081019050602083039250611f29565b6001836020036101000a038019825116818451168082178552505050505050905001915050908152602001604051809103902060006101000a81548160ff0219169083151502179055505050505050565b600260009054906101000a900473ffffffffffffffffffffffffffffffffffffffff1681565b600160009054906101000a900473ffffffffffffffffffffffffffffffffffffffff1673ffffffffffffffffffffffffffffffffffffffff163373ffffffffffffffffffffffffffffffffffffffff1614151561202157600080fd5b600073ffffffffffffffffffffffffffffffffffffffff168173ffffffffffffffffffffffffffffffffffffffff161415151561205d57600080fd5b8073ffffffffffffffffffffffffffffffffffffffff16600160009054906101000a900473ffffffffffffffffffffffffffffffffffffffff1673ffffffffffffffffffffffffffffffffffffffff167f8be0079c531659141344cd1fd0a4f28419497f9722a3daafe3b4186f6b6457e060405160405180910390a380600160006101000a81548173ffffffffffffffffffffffffffffffffffffffff021916908373ffffffffffffffffffffffffffffffffffffffff16021790555050565b61212682612c73565b61213081836126a1565b7f2809c7e17bf978fbc7194c0a694b638c4215e9140cacc6c38ca36010b45697df826040518082815260200191505060405180910390a15050565b600260009054906101000a900473ffffffffffffffffffffffffffffffffffffffff1673ffffffffffffffffffffffffffffffffffffffff166323b872dd8330846040518463ffffffff167c0100000000000000000000000000000000000000000000000000000000028152600401808473ffffffffffffffffffffffffffffffffffffffff1673ffffffffffffffffffffffffffffffffffffffff1681526020018373ffffffffffffffffffffffffffffffffffffffff1673ffffffffffffffffffffffffffffffffffffffff1681526020018281526020019350505050600060405180830381600087803b15801561226457600080fd5b505af1158015612278573d6000803e3d6000fd5b505050505050565b603c816060015167ffffffffffffffff161015151561232d576040517f08c379a00000000000000000000000000000000000000000000000000000000081526004018080602001828103825260268152602001807f6475726174696f6e206f66207468652061756374696f6e206d7573742062652081526020017f6c6f6e676572000000000000000000000000000000000000000000000000000081525060400191505060405180910390fd5b806004600084815260200190815260200160002060008201518160000160006101000a81548173ffffffffffffffffffffffffffffffffffffffff021916908373ffffffffffffffffffffffffffffffffffffffff16021790555060208201518160010160006101000a8154816fffffffffffffffffffffffffffffffff02191690836fffffffffffffffffffffffffffffffff16021790555060408201518160010160106101000a8154816fffffffffffffffffffffffffffffffff02191690836fffffffffffffffffffffffffffffffff16021790555060608201518160020160006101000a81548167ffffffffffffffff021916908367ffffffffffffffff16021790555060808201518160020160086101000a81548167ffffffffffffffff021916908367ffffffffffffffff1602179055509050507fa9c8dfcda5664a5a124c713e386da27de87432d5b668e79458501eb296389ba78282602001516fffffffffffffffffffffffffffffffff1683604001516fffffffffffffffffffffffffffffffff16846060015167ffffffffffffffff166040518085815260200184815260200183815260200182815260200194505050505060405180910390a15050565b6000806000806000806000600460008a8152602001908152602001600020955061251d86612894565b151561252857600080fd5b61253186612b80565b945084881015151561254257600080fd5b8560000160009054906101000a900473ffffffffffffffffffffffffffffffffffffffff16935061257289612c73565b60008511156125d35761258485612d2f565b925082850391508373ffffffffffffffffffffffffffffffffffffffff166108fc839081150290604051600060405180830381858888f193505050501580156125d1573d6000803e3d6000fd5b505b84880390503373ffffffffffffffffffffffffffffffffffffffff166108fc829081150290604051600060405180830381858888f1935050505015801561261e573d6000803e3d6000fd5b507f4fcc30d90a842164dd58501ab874a101a3749c3d4747139cefe7c876f4ccebd2898633604051808481526020018381526020018273ffffffffffffffffffffffffffffffffffffffff1673ffffffffffffffffffffffffffffffffffffffff168152602001935050505060405180910390a184965050505050505092915050565b600260009054906101000a900473ffffffffffffffffffffffffffffffffffffffff1673ffffffffffffffffffffffffffffffffffffffff166323b872dd3084846040518463ffffffff167c0100000000000000000000000000000000000000000000000000000000028152600401808473ffffffffffffffffffffffffffffffffffffffff1673ffffffffffffffffffffffffffffffffffffffff1681526020018373ffffffffffffffffffffffffffffffffffffffff1673ffffffffffffffffffffffffffffffffffffffff1681526020018281526020019350505050600060405180830381600087803b15801561279a57600080fd5b505af11580156127ae573d6000803e3d6000fd5b505050505050565b600080600660008573ffffffffffffffffffffffffffffffffffffffff1673ffffffffffffffffffffffffffffffffffffffff1681526020019081526020016000209150600090505b818054905081101561288e5782828281548110151561281a57fe5b906000526020600020015414156128815781600183805490500381548110151561284057fe5b9060005260206000200154828281548110151561285957fe5b90600052602060002001819055508180548091906001900361287b9190612d8a565b5061288e565b80806001019150506127ff565b50505050565b6000808260020160089054906101000a900467ffffffffffffffff1667ffffffffffffffff16119050919050565b6040805190810160405280600781526020017f4f776e61626c65000000000000000000000000000000000000000000000000008152506040805190810160405280600581526020017f312e392e3000000000000000000000000000000000000000000000000000000081525061293882826118f1565b15151561294457600080fd5b82600160006101000a81548173ffffffffffffffffffffffffffffffffffffffff021916908373ffffffffffffffffffffffffffffffffffffffff1602179055507fdd117a11c22118c9dee4b5a67ce578bc44529dce21ee0ccc439588fbb9fb4ea38282604051808060200180602001838103835285818151815260200191508051906020019080838360005b838110156129ec5780820151818401526020810190506129d1565b50505050905090810190601f168015612a195780820380516001836020036101000a031916815260200191505b50838103825284818151815260200191508051906020019080838360005b83811015612a52578082015181840152602081019050612a37565b50505050905090810190601f168015612a7f5780820380516001836020036101000a031916815260200191505b5094505050505060405180910390a160016000836040518082805190602001908083835b602083101515612ac85780518252602082019150602081019050602083039250612aa3565b6001836020036101000a0380198251168184511680821785525050505050509050019150509081526020016040518091039020826040518082805190602001908083835b602083101515612b315780518252602082019150602081019050602083039250612b0c565b6001836020036101000a038019825116818451168082178552505050505050905001915050908152602001604051809103902060006101000a81548160ff021916908315150217905550505050565b600080600090508260020160089054906101000a900467ffffffffffffffff1667ffffffffffffffff16421115612bd9578260020160089054906101000a900467ffffffffffffffff1667ffffffffffffffff16420390505b612c6b8360010160009054906101000a90046fffffffffffffffffffffffffffffffff166fffffffffffffffffffffffffffffffff168460010160109054906101000a90046fffffffffffffffffffffffffffffffff166fffffffffffffffffffffffffffffffff168560020160009054906101000a900467ffffffffffffffff1667ffffffffffffffff1684612d4a565b915050919050565b60046000828152602001908152602001600020600080820160006101000a81549073ffffffffffffffffffffffffffffffffffffffff02191690556001820160006101000a8154906fffffffffffffffffffffffffffffffff02191690556001820160106101000a8154906fffffffffffffffffffffffffffffffff02191690556002820160006101000a81549067ffffffffffffffff02191690556002820160086101000a81549067ffffffffffffffff0219169055505050565b60006127106003548302811515612d4257fe5b049050919050565b6000806000808585101515612d6157869350612d7f565b878703925085858402811515612d7357fe5b05915081880190508093505b505050949350505050565b815481835581811115612db157818360005260206000209182019101612db09190612e34565b5b505050565b60a060405190810160405280600073ffffffffffffffffffffffffffffffffffffffff16815260200160006fffffffffffffffffffffffffffffffff16815260200160006fffffffffffffffffffffffffffffffff168152602001600067ffffffffffffffff168152602001600067ffffffffffffffff1681525090565b612e5691905b80821115612e52576000816000905550600101612e3a565b5090565b905600a165627a7a7230582056baff9f05c67977ac2e5d521255d1a2f94136cc41d3a4bf5a044eaafeab30eb0029",
  "source": "pragma solidity ^0.4.23;\n\nimport \"./CommonAuction.sol\";\nimport \"./ICarSaleAuction.sol\";\nimport \"../Car/IRacersCar.sol\";\n\ncontract CarSaleAuction is ICarSaleAuction, CommonAuction  {\n\n    function isCarSaleAuction() public returns(bool) {\n        return true;\n    }\n\n    IRacersCar private carContract;\n\n    mapping (address => uint256[]) sellerToTokenIds;\n\n    modifier onlyOtherGameContracts() {\n        require(msg.sender == address(carContract), \"Not Game Contract\");\n        _;\n    }\n\n    function init (\n        address _carContract,\n        uint256 _treasurerCommission)\n    isInitializer(\"CarSaleAuction\", \"1.0.0\")\n    public\n    {\n        CommonAuction.initialize(_carContract, _treasurerCommission);\n        carContract = IRacersCar(_carContract);\n    }\n\n    function createAuction(\n        uint256 _tokenId,\n        uint256 _startingPrice,\n        uint256 _endingPrice,\n        uint256 _duration,\n        address _seller\n    )\n    external\n    onlyOtherGameContracts\n    {\n        require(_startingPrice == uint256(uint128(_startingPrice)), \"Incorrect change to dimension\");\n        require(_endingPrice == uint256(uint128(_endingPrice)), \"Incorrect change to dimension\");\n        require(_duration == uint256(uint64(_duration)), \"Incorrect change to dimension\");\n\n        _escrow(_seller, _tokenId);\n        Auction memory auction = Auction(\n            _seller,\n            uint128(_startingPrice),\n            uint128(_endingPrice),\n            uint64(_duration),\n            uint64(now)\n        );\n        _addAuction(_tokenId, auction);\n\n        sellerToTokenIds[_seller].push(_tokenId);\n    }\n\n    function bid(uint256 _tokenId)\n    external\n    payable\n    {\n        // _bid verifies token ID size\n        address seller = tokenIdToAuction[_tokenId].seller;\n        uint256 price = _bid(_tokenId, msg.value);\n        _transfer(msg.sender, _tokenId);\n\n        uint rarity;\n        (,rarity,) = carContract.getCar(_tokenId);\n\n        deleteSellerToTokenId(seller, _tokenId);\n    }\n\n\n    function cancelAuction(uint256 _tokenId)\n    external\n    {\n        Auction storage auction = tokenIdToAuction[_tokenId];\n        require(_isOnAuction(auction));\n        address seller = auction.seller;\n        require(msg.sender == seller);\n        _cancelAuction(_tokenId, seller);\n\n        deleteSellerToTokenId(seller, _tokenId);\n    }\n\n    // cancel all old auctions\n    function clearAll(address _seller, uint _carLimitation)\n    external\n    onlyOtherGameContracts\n    {\n        uint256[] storage tokenIds = sellerToTokenIds[_seller];\n        uint256 limiter;\n        for(uint i = 0; i < tokenIds.length; i++) {\n            // stop if ten cancellation have been made\n            if(limiter > _carLimitation) break;\n\n            uint256 tokenId = tokenIds[i];\n            Auction storage auction = tokenIdToAuction[tokenId];\n\n            if (auction.startedAt > 0 && now > auction.startedAt + auction.duration) {\n                if (auction.seller == _seller ) {\n                    _cancelAuction(tokenId, _seller);\n                }\n\n                tokenIds[i] = tokenIds[tokenIds.length - 1];\n                tokenIds.length--;\n                i--; // for checking new auction on old place\n            }\n\n            limiter++;\n        }\n    }\n\n    function clearOne(address _seller, uint _tokenId)\n    external\n    onlyOtherGameContracts\n    {\n        uint256[] storage tokenIds = sellerToTokenIds[_seller];\n        for(uint i = 0; i < tokenIds.length; i++) {\n            uint256 tokenId = tokenIds[i];\n            if (tokenId == _tokenId) {\n                Auction storage auction = tokenIdToAuction[tokenId];\n\n                if (auction.startedAt > 0 && now > auction.startedAt + auction.duration) {\n                    if (auction.seller == _seller ) {\n                        _cancelAuction(tokenId, _seller);\n                    }\n\n                    tokenIds[i] = tokenIds[tokenIds.length - 1];\n                    tokenIds.length--;\n                    break;\n                }\n            }\n        }\n    }\n\n\n    function deleteSellerToTokenId(address _seller, uint256 _tokenId)\n    internal\n    {\n        uint256[] storage tokenIds = sellerToTokenIds[_seller];\n        for(uint i = 0; i < tokenIds.length; i++) {\n            if (tokenIds[i] == _tokenId) {\n\n                tokenIds[i] = tokenIds[tokenIds.length - 1];\n                tokenIds.length--;\n                break;\n            }\n        }\n    }\n\n    uint256[50] private ______gap;\n}",
  "sourcePath": "/Users/ivanborisov/Desktop/work/0xGames/crypto-racers-tron/contracts/CarSaleAuction/CarSaleAuction.sol",
  "compiler": {
    "name": "solc",
    "version": "0.4.24-develop.2018.8.28+commit.3ba0cdec.mod.Emscripten.clang"
  },
  "schemaVersion": "2.0.1",
  "updatedAt": "2018-12-28T16:17:19.357Z"
}