{
  "contractName": "RacersBoxFactory",
  "abi": [
    {
      "constant": false,
      "inputs": [
        {
          "name": "addr",
          "type": "address"
        }
      ],
      "name": "removeAddressFromWhitelist",
      "outputs": [
        {
          "name": "success",
          "type": "bool"
        }
      ],
      "payable": false,
      "stateMutability": "nonpayable",
      "type": "function"
    },
    {
      "constant": true,
      "inputs": [],
      "name": "car_",
      "outputs": [
        {
          "name": "",
          "type": "address"
        }
      ],
      "payable": false,
      "stateMutability": "view",
      "type": "function"
    },
    {
      "constant": false,
      "inputs": [
        {
          "name": "_treasurer",
          "type": "address"
        }
      ],
      "name": "transferTreasurer",
      "outputs": [],
      "payable": false,
      "stateMutability": "nonpayable",
      "type": "function"
    },
    {
      "constant": false,
      "inputs": [
        {
          "name": "addr",
          "type": "address"
        }
      ],
      "name": "addAddressToWhitelist",
      "outputs": [
        {
          "name": "success",
          "type": "bool"
        }
      ],
      "payable": false,
      "stateMutability": "nonpayable",
      "type": "function"
    },
    {
      "constant": true,
      "inputs": [],
      "name": "owner",
      "outputs": [
        {
          "name": "",
          "type": "address"
        }
      ],
      "payable": false,
      "stateMutability": "view",
      "type": "function"
    },
    {
      "constant": true,
      "inputs": [
        {
          "name": "",
          "type": "address"
        }
      ],
      "name": "whitelist",
      "outputs": [
        {
          "name": "",
          "type": "bool"
        }
      ],
      "payable": false,
      "stateMutability": "view",
      "type": "function"
    },
    {
      "constant": true,
      "inputs": [
        {
          "name": "contractName",
          "type": "string"
        },
        {
          "name": "migrationId",
          "type": "string"
        }
      ],
      "name": "isMigrated",
      "outputs": [
        {
          "name": "",
          "type": "bool"
        }
      ],
      "payable": false,
      "stateMutability": "view",
      "type": "function"
    },
    {
      "constant": false,
      "inputs": [
        {
          "name": "newOwner",
          "type": "address"
        }
      ],
      "name": "transferOwnership",
      "outputs": [],
      "payable": false,
      "stateMutability": "nonpayable",
      "type": "function"
    },
    {
      "constant": true,
      "inputs": [],
      "name": "treasurer",
      "outputs": [
        {
          "name": "",
          "type": "address"
        }
      ],
      "payable": false,
      "stateMutability": "view",
      "type": "function"
    },
    {
      "payable": true,
      "stateMutability": "payable",
      "type": "fallback",
      "name": "fallback"
    },
    {
      "anonymous": false,
      "inputs": [
        {
          "indexed": false,
          "name": "buyer",
          "type": "address"
        },
        {
          "indexed": false,
          "name": "boxType",
          "type": "uint16"
        }
      ],
      "name": "NewBoxBought",
      "type": "event"
    },
    {
      "anonymous": false,
      "inputs": [
        {
          "indexed": false,
          "name": "sender",
          "type": "address"
        },
        {
          "indexed": false,
          "name": "boxType",
          "type": "uint16"
        }
      ],
      "name": "BoxGifted",
      "type": "event"
    },
    {
      "anonymous": false,
      "inputs": [
        {
          "indexed": false,
          "name": "addr",
          "type": "address"
        }
      ],
      "name": "WhitelistedAddressAdded",
      "type": "event"
    },
    {
      "anonymous": false,
      "inputs": [
        {
          "indexed": false,
          "name": "addr",
          "type": "address"
        }
      ],
      "name": "WhitelistedAddressRemoved",
      "type": "event"
    },
    {
      "anonymous": false,
      "inputs": [
        {
          "indexed": true,
          "name": "previousOwner",
          "type": "address"
        },
        {
          "indexed": true,
          "name": "newOwner",
          "type": "address"
        }
      ],
      "name": "OwnershipTransferred",
      "type": "event"
    },
    {
      "anonymous": false,
      "inputs": [
        {
          "indexed": false,
          "name": "contractName",
          "type": "string"
        },
        {
          "indexed": false,
          "name": "migrationId",
          "type": "string"
        }
      ],
      "name": "Migrated",
      "type": "event"
    },
    {
      "constant": false,
      "inputs": [
        {
          "name": "_carAddress",
          "type": "address"
        }
      ],
      "name": "initialize",
      "outputs": [],
      "payable": false,
      "stateMutability": "nonpayable",
      "type": "function"
    },
    {
      "constant": false,
      "inputs": [
        {
          "name": "_carAddress",
          "type": "address"
        }
      ],
      "name": "setCarContract",
      "outputs": [],
      "payable": false,
      "stateMutability": "nonpayable",
      "type": "function"
    },
    {
      "constant": false,
      "inputs": [
        {
          "name": "_boxType",
          "type": "uint16"
        }
      ],
      "name": "buyBox",
      "outputs": [],
      "payable": true,
      "stateMutability": "payable",
      "type": "function"
    },
    {
      "constant": false,
      "inputs": [
        {
          "name": "_boxType",
          "type": "uint16"
        },
        {
          "name": "_to",
          "type": "address"
        }
      ],
      "name": "giftBox",
      "outputs": [],
      "payable": false,
      "stateMutability": "nonpayable",
      "type": "function"
    },
    {
      "constant": false,
      "inputs": [
        {
          "name": "_type",
          "type": "uint16"
        },
        {
          "name": "_price",
          "type": "uint256"
        }
      ],
      "name": "setBoxPrices",
      "outputs": [],
      "payable": false,
      "stateMutability": "nonpayable",
      "type": "function"
    },
    {
      "constant": true,
      "inputs": [],
      "name": "getBoxPrices",
      "outputs": [
        {
          "name": "",
          "type": "uint256"
        },
        {
          "name": "",
          "type": "uint256"
        },
        {
          "name": "",
          "type": "uint256"
        }
      ],
      "payable": false,
      "stateMutability": "view",
      "type": "function"
    },
    {
      "constant": false,
      "inputs": [],
      "name": "withdrawFactoryBalance",
      "outputs": [],
      "payable": false,
      "stateMutability": "nonpayable",
      "type": "function"
    }
  ],
  "bytecode": "0x608060405234801561001057600080fd5b50611fc7806100206000396000f3006080604052600436106100e6576000357c0100000000000000000000000000000000000000000000000000000000900463ffffffff16806308c9dde6146100eb5780631a1bdd701461010f578063286dd3f51461014857806339346d43146101a35780634ebac9e6146101f4578063611e68d41461024b57806361556d751461028e5780637b9417c8146102d15780638da5cb5b1461032c5780639403348d1461038357806397a39fb9146103be5780639b19251a146103d5578063c0bac1a814610430578063c4d66de8146104f7578063f2fde38b1461053a578063fda49eb41461057d575b600080fd5b61010d600480360381019080803561ffff1690602001909291905050506105d4565b005b34801561011b57600080fd5b5061012461076e565b60405180848152602001838152602001828152602001935050505060405180910390f35b34801561015457600080fd5b50610189600480360381019080803573ffffffffffffffffffffffffffffffffffffffff1690602001909291905050506107b4565b604051808215151515815260200191505060405180910390f35b3480156101af57600080fd5b506101f2600480360381019080803561ffff169060200190929190803573ffffffffffffffffffffffffffffffffffffffff169060200190929190505050610929565b005b34801561020057600080fd5b50610209610b35565b604051808273ffffffffffffffffffffffffffffffffffffffff1673ffffffffffffffffffffffffffffffffffffffff16815260200191505060405180910390f35b34801561025757600080fd5b5061028c600480360381019080803573ffffffffffffffffffffffffffffffffffffffff169060200190929190505050610b5b565b005b34801561029a57600080fd5b506102cf600480360381019080803573ffffffffffffffffffffffffffffffffffffffff169060200190929190505050610c32565b005b3480156102dd57600080fd5b50610312600480360381019080803573ffffffffffffffffffffffffffffffffffffffff169060200190929190505050610cd2565b604051808215151515815260200191505060405180910390f35b34801561033857600080fd5b50610341610e48565b604051808273ffffffffffffffffffffffffffffffffffffffff1673ffffffffffffffffffffffffffffffffffffffff16815260200191505060405180910390f35b34801561038f57600080fd5b506103bc600480360381019080803561ffff16906020019092919080359060200190929190505050610e6e565b005b3480156103ca57600080fd5b506103d3610ee7565b005b3480156103e157600080fd5b50610416600480360381019080803573ffffffffffffffffffffffffffffffffffffffff169060200190929190505050611034565b604051808215151515815260200191505060405180910390f35b34801561043c57600080fd5b506104dd600480360381019080803590602001908201803590602001908080601f0160208091040260200160405190810160405280939291908181526020018383808284378201915050505050509192919290803590602001908201803590602001908080601f0160208091040260200160405190810160405280939291908181526020018383808284378201915050505050509192919290505050611054565b604051808215151515815260200191505060405180910390f35b34801561050357600080fd5b50610538600480360381019080803573ffffffffffffffffffffffffffffffffffffffff16906020019092919050505061113f565b005b34801561054657600080fd5b5061057b600480360381019080803573ffffffffffffffffffffffffffffffffffffffff1690602001909291905050506114eb565b005b34801561058957600080fd5b50610592611643565b604051808273ffffffffffffffffffffffffffffffffffffffff1673ffffffffffffffffffffffffffffffffffffffff16815260200191505060405180910390f35b60008161ffff16101580156105ee575060028161ffff1611155b1515610662576040517f08c379a000000000000000000000000000000000000000000000000000000000815260040180806020018281038252601e8152602001807f426f7820747970652063616e6e6f74206265206d6f7265207468616e2032000081525060200191505060405180910390fd5b60068161ffff1660038110151561067557fe5b015434101515156106ee576040517f08c379a00000000000000000000000000000000000000000000000000000000081526004018080602001828103825260138152602001807f496e73756666696369656e74206571756974790000000000000000000000000081525060200191505060405180910390fd5b6106f83382611669565b7f6cd0b7d1a965508700c463ed94a05474d6a65b95854f70cbbc0e70f940d6ae993382604051808373ffffffffffffffffffffffffffffffffffffffff1673ffffffffffffffffffffffffffffffffffffffff1681526020018261ffff1661ffff1681526020019250505060405180910390a150565b60008060006006600060038110151561078357fe5b01546006600160038110151561079557fe5b0154600660026003811015156107a757fe5b0154925092509250909192565b6000600160009054906101000a900473ffffffffffffffffffffffffffffffffffffffff1673ffffffffffffffffffffffffffffffffffffffff163373ffffffffffffffffffffffffffffffffffffffff1614151561081257600080fd5b600460008373ffffffffffffffffffffffffffffffffffffffff1673ffffffffffffffffffffffffffffffffffffffff16815260200190815260200160002060009054906101000a900460ff1615610924576000600460008473ffffffffffffffffffffffffffffffffffffffff1673ffffffffffffffffffffffffffffffffffffffff16815260200190815260200160002060006101000a81548160ff0219169083151502179055507ff1abf01a1043b7c244d128e8595cf0c1d10743b022b03a02dffd8ca3bf729f5a82604051808273ffffffffffffffffffffffffffffffffffffffff1673ffffffffffffffffffffffffffffffffffffffff16815260200191505060405180910390a1600190505b919050565b600460003373ffffffffffffffffffffffffffffffffffffffff1673ffffffffffffffffffffffffffffffffffffffff16815260200190815260200160002060009054906101000a900460ff16151561098157600080fd5b600073ffffffffffffffffffffffffffffffffffffffff168173ffffffffffffffffffffffffffffffffffffffff1614151515610a26576040517f08c379a000000000000000000000000000000000000000000000000000000000815260040180806020018281038252601c8152602001807f696e636f727265637420616464726573732c2074727920616761696e0000000081525060200191505060405180910390fd5b60008261ffff1610158015610a40575060028261ffff1611155b1515610ab4576040517f08c379a000000000000000000000000000000000000000000000000000000000815260040180806020018281038252601e8152602001807f426f7820747970652063616e6e6f74206265206d6f7265207468616e2032000081525060200191505060405180910390fd5b610abe8183611669565b7f762bed4d603ac1c05e2b218d4ac48baed27e257cb62bc324aa4764bbcc1b52e18183604051808373ffffffffffffffffffffffffffffffffffffffff1673ffffffffffffffffffffffffffffffffffffffff1681526020018261ffff1661ffff1681526020019250505060405180910390a15050565b600560009054906101000a900473ffffffffffffffffffffffffffffffffffffffff1681565b600160009054906101000a900473ffffffffffffffffffffffffffffffffffffffff1673ffffffffffffffffffffffffffffffffffffffff163373ffffffffffffffffffffffffffffffffffffffff16141515610bb757600080fd5b600073ffffffffffffffffffffffffffffffffffffffff168173ffffffffffffffffffffffffffffffffffffffff16141515610c2f5780600260006101000a81548173ffffffffffffffffffffffffffffffffffffffff021916908373ffffffffffffffffffffffffffffffffffffffff1602179055505b50565b600160009054906101000a900473ffffffffffffffffffffffffffffffffffffffff1673ffffffffffffffffffffffffffffffffffffffff163373ffffffffffffffffffffffffffffffffffffffff16141515610c8e57600080fd5b80600560006101000a81548173ffffffffffffffffffffffffffffffffffffffff021916908373ffffffffffffffffffffffffffffffffffffffff16021790555050565b6000600160009054906101000a900473ffffffffffffffffffffffffffffffffffffffff1673ffffffffffffffffffffffffffffffffffffffff163373ffffffffffffffffffffffffffffffffffffffff16141515610d3057600080fd5b600460008373ffffffffffffffffffffffffffffffffffffffff1673ffffffffffffffffffffffffffffffffffffffff16815260200190815260200160002060009054906101000a900460ff161515610e43576001600460008473ffffffffffffffffffffffffffffffffffffffff1673ffffffffffffffffffffffffffffffffffffffff16815260200190815260200160002060006101000a81548160ff0219169083151502179055507fd1bba68c128cc3f427e5831b3c6f99f480b6efa6b9e80c757768f6124158cc3f82604051808273ffffffffffffffffffffffffffffffffffffffff1673ffffffffffffffffffffffffffffffffffffffff16815260200191505060405180910390a1600190505b919050565b600160009054906101000a900473ffffffffffffffffffffffffffffffffffffffff1681565b600160009054906101000a900473ffffffffffffffffffffffffffffffffffffffff1673ffffffffffffffffffffffffffffffffffffffff163373ffffffffffffffffffffffffffffffffffffffff16141515610eca57600080fd5b8060068361ffff16600381101515610ede57fe5b01819055505050565b6000600260009054906101000a900473ffffffffffffffffffffffffffffffffffffffff1673ffffffffffffffffffffffffffffffffffffffff163373ffffffffffffffffffffffffffffffffffffffff16141515610fae576040517f08c379a000000000000000000000000000000000000000000000000000000000815260040180806020018281038252600e8152602001807f4f6e6c792074726561737572657200000000000000000000000000000000000081525060200191505060405180910390fd5b3073ffffffffffffffffffffffffffffffffffffffff16319050600260009054906101000a900473ffffffffffffffffffffffffffffffffffffffff1673ffffffffffffffffffffffffffffffffffffffff166108fc829081150290604051600060405180830381858888f19350505050158015611030573d6000803e3d6000fd5b5050565b60046020528060005260406000206000915054906101000a900460ff1681565b600080836040518082805190602001908083835b60208310151561108d5780518252602082019150602081019050602083039250611068565b6001836020036101000a0380198251168184511680821785525050505050509050019150509081526020016040518091039020826040518082805190602001908083835b6020831015156110f657805182526020820191506020810190506020830392506110d1565b6001836020036101000a038019825116818451168082178552505050505050905001915050908152602001604051809103902060009054906101000a900460ff16905092915050565b6040805190810160405280601081526020017f526163657273426f78466163746f7279000000000000000000000000000000008152506040805190810160405280600581526020017f312e302e300000000000000000000000000000000000000000000000000000008152506111b58282611054565b1515156111c157600080fd5b600073ffffffffffffffffffffffffffffffffffffffff168373ffffffffffffffffffffffffffffffffffffffff1614151515611266576040517f08c379a00000000000000000000000000000000000000000000000000000000081526004018080602001828103825260118152602001807f6164647265737320696e636f727265637400000000000000000000000000000081525060200191505060405180910390fd5b61126f33611b4e565b61129a600160009054906101000a900473ffffffffffffffffffffffffffffffffffffffff16610b5b565b6112a383610c32565b62989680600660006003811015156112b757fe5b01819055506301312d00600660016003811015156112d157fe5b01819055506302625a00600660026003811015156112eb57fe5b01819055507fdd117a11c22118c9dee4b5a67ce578bc44529dce21ee0ccc439588fbb9fb4ea38282604051808060200180602001838103835285818151815260200191508051906020019080838360005b8381101561135757808201518184015260208101905061133c565b50505050905090810190601f1680156113845780820380516001836020036101000a031916815260200191505b50838103825284818151815260200191508051906020019080838360005b838110156113bd5780820151818401526020810190506113a2565b50505050905090810190601f1680156113ea5780820380516001836020036101000a031916815260200191505b5094505050505060405180910390a160016000836040518082805190602001908083835b602083101515611433578051825260208201915060208101905060208303925061140e565b6001836020036101000a0380198251168184511680821785525050505050509050019150509081526020016040518091039020826040518082805190602001908083835b60208310151561149c5780518252602082019150602081019050602083039250611477565b6001836020036101000a038019825116818451168082178552505050505050905001915050908152602001604051809103902060006101000a81548160ff021916908315150217905550505050565b600160009054906101000a900473ffffffffffffffffffffffffffffffffffffffff1673ffffffffffffffffffffffffffffffffffffffff163373ffffffffffffffffffffffffffffffffffffffff1614151561154757600080fd5b600073ffffffffffffffffffffffffffffffffffffffff168173ffffffffffffffffffffffffffffffffffffffff161415151561158357600080fd5b8073ffffffffffffffffffffffffffffffffffffffff16600160009054906101000a900473ffffffffffffffffffffffffffffffffffffffff1673ffffffffffffffffffffffffffffffffffffffff167f8be0079c531659141344cd1fd0a4f28419497f9722a3daafe3b4186f6b6457e060405160405180910390a380600160006101000a81548173ffffffffffffffffffffffffffffffffffffffff021916908373ffffffffffffffffffffffffffffffffffffffff16021790555050565b600260009054906101000a900473ffffffffffffffffffffffffffffffffffffffff1681565b6000808261ffff16141561180957600560009054906101000a900473ffffffffffffffffffffffffffffffffffffffff1673ffffffffffffffffffffffffffffffffffffffff1663997171cf846116f56080604051908101604052806102ee61ffff16815260200160c861ffff168152602001603061ffff168152602001600261ffff16815250611e0c565b61170160006017611ec9565b6040518463ffffffff167c0100000000000000000000000000000000000000000000000000000000028152600401808473ffffffffffffffffffffffffffffffffffffffff1673ffffffffffffffffffffffffffffffffffffffff168152602001806020018460ff1681526020018360ff168152602001828103825260038152602001807f4341520000000000000000000000000000000000000000000000000000000000815250602001945050505050602060405180830381600087803b1580156117cc57600080fd5b505af11580156117e0573d6000803e3d6000fd5b505050506040513d60208110156117f657600080fd5b8101908080519060200190929190505050505b60018261ffff1614156119a957600560009054906101000a900473ffffffffffffffffffffffffffffffffffffffff1673ffffffffffffffffffffffffffffffffffffffff1663997171cf846118956080604051908101604052806101c261ffff16815260200161019061ffff168152602001608c61ffff168152602001600a61ffff16815250611e0c565b6118a160006017611ec9565b6040518463ffffffff167c0100000000000000000000000000000000000000000000000000000000028152600401808473ffffffffffffffffffffffffffffffffffffffff1673ffffffffffffffffffffffffffffffffffffffff168152602001806020018460ff1681526020018360ff168152602001828103825260038152602001807f4341520000000000000000000000000000000000000000000000000000000000815250602001945050505050602060405180830381600087803b15801561196c57600080fd5b505af1158015611980573d6000803e3d6000fd5b505050506040513d602081101561199657600080fd5b8101908080519060200190929190505050505b60028261ffff161415611b4957600560009054906101000a900473ffffffffffffffffffffffffffffffffffffffff1673ffffffffffffffffffffffffffffffffffffffff1663997171cf84611a35608060405190810160405280606461ffff16815260200161022661ffff16815260200161012c61ffff168152602001603261ffff16815250611e0c565b611a4160006017611ec9565b6040518463ffffffff167c0100000000000000000000000000000000000000000000000000000000028152600401808473ffffffffffffffffffffffffffffffffffffffff1673ffffffffffffffffffffffffffffffffffffffff168152602001806020018460ff1681526020018360ff168152602001828103825260038152602001807f4341520000000000000000000000000000000000000000000000000000000000815250602001945050505050602060405180830381600087803b158015611b0c57600080fd5b505af1158015611b20573d6000803e3d6000fd5b505050506040513d6020811015611b3657600080fd5b8101908080519060200190929190505050505b505050565b6040805190810160405280600781526020017f4f776e61626c65000000000000000000000000000000000000000000000000008152506040805190810160405280600581526020017f312e392e30000000000000000000000000000000000000000000000000000000815250611bc48282611054565b151515611bd057600080fd5b82600160006101000a81548173ffffffffffffffffffffffffffffffffffffffff021916908373ffffffffffffffffffffffffffffffffffffffff1602179055507fdd117a11c22118c9dee4b5a67ce578bc44529dce21ee0ccc439588fbb9fb4ea38282604051808060200180602001838103835285818151815260200191508051906020019080838360005b83811015611c78578082015181840152602081019050611c5d565b50505050905090810190601f168015611ca55780820380516001836020036101000a031916815260200191505b50838103825284818151815260200191508051906020019080838360005b83811015611cde578082015181840152602081019050611cc3565b50505050905090810190601f168015611d0b5780820380516001836020036101000a031916815260200191505b5094505050505060405180910390a160016000836040518082805190602001908083835b602083101515611d545780518252602082019150602081019050602083039250611d2f565b6001836020036101000a0380198251168184511680821785525050505050509050019150509081526020016040518091039020826040518082805190602001908083835b602083101515611dbd5780518252602082019150602081019050602083039250611d98565b6001836020036101000a038019825116818451168082178552505050505050905001915050908152602001604051809103902060006101000a81548160ff021916908315150217905550505050565b600080611e1c60016103e8611edd565b9050826000600481101515611e2d57fe5b602002015161ffff1681111515611e475760009150611ec3565b826001600481101515611e5657fe5b602002015161ffff1681111515611e705760019150611ec3565b826002600481101515611e7f57fe5b602002015161ffff1681111515611e995760029150611ec3565b826003600481101515611ea857fe5b602002015161ffff1681111515611ec25760039150611ec3565b5b50919050565b6000611ed58383611edd565b905092915050565b600082600184840301611eee611f1a565b60405180828152602001915050604051809103902060019004811515611f1057fe5b0601905092915050565b60008060008060014303925082406001900491507f028f5c28f5c28f5c28f5c28f5c28f5c28f5c28f5c28f5c28f5c28f5c28f5c28f90508082811515611f5c57fe5b0460643373ffffffffffffffffffffffffffffffffffffffff16811515611f7f57fe5b06016003600082825401925050819055506003549350505050905600a165627a7a72305820a5d68ede71d43342b32bc6315adf090cbba5d5174f29f3eb2dddb2b1848e95c60029",
  "source": "pragma solidity ^0.4.23;\n\nimport \"../Tools/Random.sol\";\nimport \"../Car/IRacersCar.sol\";\nimport \"../Access/TreasurerMigratable.sol\";\nimport \"../Access/WhitelistMigratable.sol\";\n\n\ncontract RacersBoxFactory is TreasurerMigratable, Random, WhitelistMigratable {\n\n    event NewBoxBought(address buyer, uint16 boxType);\n    event BoxGifted(address sender, uint16 boxType);\n\n    IRacersCar public car_;\n\n    uint256[3] price;\n\n\n    function initialize( address _carAddress) public isInitializer(\"RacersBoxFactory\", \"1.0.0\") {\n        require(_carAddress != address(0), \"address incorrect\");\n        Ownable.initialize(msg.sender);\n\n        transferTreasurer(owner);\n\n        setCarContract(_carAddress);\n\n        price[0] = 10000000; // car common\n        price[1] = 20000000; // car plus\n        price[2] = 40000000; // car pro\n    }\n\n\n    function setCarContract(address _carAddress) public onlyOwner {\n        car_ = IRacersCar(_carAddress);\n    }\n\n\n    function buyBox (uint16 _boxType) public payable {\n        require(_boxType >= 0 && _boxType <= 2, \"Box type cannot be more than 2\");\n        require(msg.value >= price[_boxType], \"Insufficient equity\");\n\n        _issue(msg.sender, _boxType);\n\n        emit NewBoxBought(msg.sender, _boxType);\n    }\n\n\n    function giftBox (uint16 _boxType, address _to) public onlyWhitelisted {\n        require(_to != address(0), \"incorrect address, try again\");\n        require(_boxType >= 0 && _boxType <= 2, \"Box type cannot be more than 2\");\n        _issue(_to, _boxType);\n\n        emit BoxGifted(_to, _boxType);\n    }\n\n\n    function setBoxPrices(uint16 _type, uint256 _price) public onlyOwner {\n        price[_type] = _price;\n    }\n\n\n    function getBoxPrices() public view returns(uint256, uint256, uint256) {\n        return(price[0], price[1], price[2]);\n    }\n\n    function () public payable {\n        revert();\n    }\n\n\n    function withdrawFactoryBalance() external onlyTreasurer {\n        uint256 balance = address(this).balance;\n\n        treasurer.transfer(balance);\n    }\n\n\n    function _issue(address _to, uint16 _boxType) internal view {\n            uint256 randomCar;\n\n            if (_boxType == 0) {\n                car_.mintCar(_to, \"CAR\", _generateRarities( [750, 200, 48, 2]), _generateRandom(0,23));\n            }\n            if (_boxType == 1) {\n                car_.mintCar(_to, \"CAR\", _generateRarities([450, 400, 140, 10]), _generateRandom(0,23));\n            }\n            if (_boxType == 2) {\n                car_.mintCar(_to, \"CAR\", _generateRarities([100, 550, 300, 50]), _generateRandom(0,23));\n            }\n        }\n\n\n    function _generateRarities ( uint16[4] memory _chances ) internal view returns ( uint8 ) {\n        uint256 chance = _randRange(1,1000);\n\n            if (chance <= _chances[0]) {\n                return 0;\n            }\n            if (chance <= _chances[1]) {\n                return 1;\n            }\n            if (chance <= _chances[2]) {\n                return 2;\n            }\n            if (chance <= _chances[3]) {\n                return 3;\n            }\n    }\n\n    function _generateRandom(uint256 _begin, uint256 _end) internal view returns (uint8) {\n        return uint8(_randRange(_begin, _end));\n    }\n\n    uint256[50] private ______gap;\n}",
  "sourcePath": "/Users/ivanborisov/Desktop/work/0xGames/crypto-racers-tron/contracts/LootBoxFactory/RacersBoxFactory.sol",
  "compiler": {
    "name": "solc",
    "version": "0.4.24-develop.2018.8.28+commit.3ba0cdec.mod.Emscripten.clang"
  },
  "schemaVersion": "2.0.1",
  "updatedAt": "2018-12-28T16:17:19.375Z"
}