{
  "contractName": "TournamentAI",
  "abi": [
    {
      "constant": false,
      "inputs": [
        {
          "name": "addr",
          "type": "address"
        }
      ],
      "name": "removeAddressFromWhitelist",
      "outputs": [
        {
          "name": "success",
          "type": "bool"
        }
      ],
      "payable": false,
      "stateMutability": "nonpayable",
      "type": "function"
    },
    {
      "constant": false,
      "inputs": [
        {
          "name": "_treasurer",
          "type": "address"
        }
      ],
      "name": "transferTreasurer",
      "outputs": [],
      "payable": false,
      "stateMutability": "nonpayable",
      "type": "function"
    },
    {
      "constant": false,
      "inputs": [
        {
          "name": "addr",
          "type": "address"
        }
      ],
      "name": "addAddressToWhitelist",
      "outputs": [
        {
          "name": "success",
          "type": "bool"
        }
      ],
      "payable": false,
      "stateMutability": "nonpayable",
      "type": "function"
    },
    {
      "constant": true,
      "inputs": [],
      "name": "owner",
      "outputs": [
        {
          "name": "",
          "type": "address"
        }
      ],
      "payable": false,
      "stateMutability": "view",
      "type": "function"
    },
    {
      "constant": true,
      "inputs": [
        {
          "name": "",
          "type": "address"
        }
      ],
      "name": "whitelist",
      "outputs": [
        {
          "name": "",
          "type": "bool"
        }
      ],
      "payable": false,
      "stateMutability": "view",
      "type": "function"
    },
    {
      "constant": true,
      "inputs": [
        {
          "name": "contractName",
          "type": "string"
        },
        {
          "name": "migrationId",
          "type": "string"
        }
      ],
      "name": "isMigrated",
      "outputs": [
        {
          "name": "",
          "type": "bool"
        }
      ],
      "payable": false,
      "stateMutability": "view",
      "type": "function"
    },
    {
      "constant": false,
      "inputs": [
        {
          "name": "_sender",
          "type": "address"
        }
      ],
      "name": "initialize",
      "outputs": [],
      "payable": false,
      "stateMutability": "nonpayable",
      "type": "function"
    },
    {
      "constant": false,
      "inputs": [
        {
          "name": "newOwner",
          "type": "address"
        }
      ],
      "name": "transferOwnership",
      "outputs": [],
      "payable": false,
      "stateMutability": "nonpayable",
      "type": "function"
    },
    {
      "constant": true,
      "inputs": [],
      "name": "treasurer",
      "outputs": [
        {
          "name": "",
          "type": "address"
        }
      ],
      "payable": false,
      "stateMutability": "view",
      "type": "function"
    },
    {
      "payable": true,
      "stateMutability": "payable",
      "type": "fallback",
      "name": "fallback"
    },
    {
      "anonymous": false,
      "inputs": [
        {
          "indexed": false,
          "name": "place",
          "type": "uint256"
        }
      ],
      "name": "Result",
      "type": "event"
    },
    {
      "anonymous": false,
      "inputs": [
        {
          "indexed": false,
          "name": "addr",
          "type": "address"
        }
      ],
      "name": "WhitelistedAddressAdded",
      "type": "event"
    },
    {
      "anonymous": false,
      "inputs": [
        {
          "indexed": false,
          "name": "addr",
          "type": "address"
        }
      ],
      "name": "WhitelistedAddressRemoved",
      "type": "event"
    },
    {
      "anonymous": false,
      "inputs": [
        {
          "indexed": true,
          "name": "previousOwner",
          "type": "address"
        },
        {
          "indexed": true,
          "name": "newOwner",
          "type": "address"
        }
      ],
      "name": "OwnershipTransferred",
      "type": "event"
    },
    {
      "anonymous": false,
      "inputs": [
        {
          "indexed": false,
          "name": "contractName",
          "type": "string"
        },
        {
          "indexed": false,
          "name": "migrationId",
          "type": "string"
        }
      ],
      "name": "Migrated",
      "type": "event"
    },
    {
      "constant": false,
      "inputs": [],
      "name": "init",
      "outputs": [],
      "payable": false,
      "stateMutability": "nonpayable",
      "type": "function"
    },
    {
      "constant": false,
      "inputs": [
        {
          "name": "_type",
          "type": "uint256"
        },
        {
          "name": "_bid",
          "type": "uint256"
        }
      ],
      "name": "setBid",
      "outputs": [],
      "payable": false,
      "stateMutability": "nonpayable",
      "type": "function"
    },
    {
      "constant": false,
      "inputs": [
        {
          "name": "_gameType",
          "type": "uint256"
        }
      ],
      "name": "runTournament",
      "outputs": [],
      "payable": true,
      "stateMutability": "payable",
      "type": "function"
    },
    {
      "constant": false,
      "inputs": [
        {
          "name": "_wallet",
          "type": "address"
        }
      ],
      "name": "withdrawBalance",
      "outputs": [],
      "payable": false,
      "stateMutability": "nonpayable",
      "type": "function"
    }
  ],
  "bytecode": "0x608060405234801561001057600080fd5b506115b5806100206000396000f3006080604052600436106100c5576000357c0100000000000000000000000000000000000000000000000000000000900463ffffffff168063286dd3f5146100ca578063611e68d414610125578063711283d114610168578063756af45f1461019f5780637b9417c8146101e25780638da5cb5b1461023d5780639b19251a14610294578063c0bac1a8146102ef578063c4d66de8146103b6578063cda4d0fb146103f9578063e1c7392a14610419578063f2fde38b14610430578063fda49eb414610473575b600080fd5b3480156100d657600080fd5b5061010b600480360381019080803573ffffffffffffffffffffffffffffffffffffffff1690602001909291905050506104ca565b604051808215151515815260200191505060405180910390f35b34801561013157600080fd5b50610166600480360381019080803573ffffffffffffffffffffffffffffffffffffffff16906020019092919050505061063f565b005b34801561017457600080fd5b5061019d6004803603810190808035906020019092919080359060200190929190505050610716565b005b3480156101ab57600080fd5b506101e0600480360381019080803573ffffffffffffffffffffffffffffffffffffffff16906020019092919050505061078b565b005b3480156101ee57600080fd5b50610223600480360381019080803573ffffffffffffffffffffffffffffffffffffffff1690602001909291905050506108ed565b604051808215151515815260200191505060405180910390f35b34801561024957600080fd5b50610252610a63565b604051808273ffffffffffffffffffffffffffffffffffffffff1673ffffffffffffffffffffffffffffffffffffffff16815260200191505060405180910390f35b3480156102a057600080fd5b506102d5600480360381019080803573ffffffffffffffffffffffffffffffffffffffff169060200190929190505050610a89565b604051808215151515815260200191505060405180910390f35b3480156102fb57600080fd5b5061039c600480360381019080803590602001908201803590602001908080601f0160208091040260200160405190810160405280939291908181526020018383808284378201915050505050509192919290803590602001908201803590602001908080601f0160208091040260200160405190810160405280939291908181526020018383808284378201915050505050509192919290505050610aa9565b604051808215151515815260200191505060405180910390f35b3480156103c257600080fd5b506103f7600480360381019080803573ffffffffffffffffffffffffffffffffffffffff169060200190929190505050610b94565b005b61041760048036038101908080359060200190929190505050610e52565b005b34801561042557600080fd5b5061042e611007565b005b34801561043c57600080fd5b50610471600480360381019080803573ffffffffffffffffffffffffffffffffffffffff1690602001909291905050506112e7565b005b34801561047f57600080fd5b5061048861143f565b604051808273ffffffffffffffffffffffffffffffffffffffff1673ffffffffffffffffffffffffffffffffffffffff16815260200191505060405180910390f35b6000600160009054906101000a900473ffffffffffffffffffffffffffffffffffffffff1673ffffffffffffffffffffffffffffffffffffffff163373ffffffffffffffffffffffffffffffffffffffff1614151561052857600080fd5b600460008373ffffffffffffffffffffffffffffffffffffffff1673ffffffffffffffffffffffffffffffffffffffff16815260200190815260200160002060009054906101000a900460ff161561063a576000600460008473ffffffffffffffffffffffffffffffffffffffff1673ffffffffffffffffffffffffffffffffffffffff16815260200190815260200160002060006101000a81548160ff0219169083151502179055507ff1abf01a1043b7c244d128e8595cf0c1d10743b022b03a02dffd8ca3bf729f5a82604051808273ffffffffffffffffffffffffffffffffffffffff1673ffffffffffffffffffffffffffffffffffffffff16815260200191505060405180910390a1600190505b919050565b600160009054906101000a900473ffffffffffffffffffffffffffffffffffffffff1673ffffffffffffffffffffffffffffffffffffffff163373ffffffffffffffffffffffffffffffffffffffff1614151561069b57600080fd5b600073ffffffffffffffffffffffffffffffffffffffff168173ffffffffffffffffffffffffffffffffffffffff161415156107135780600260006101000a81548173ffffffffffffffffffffffffffffffffffffffff021916908373ffffffffffffffffffffffffffffffffffffffff1602179055505b50565b600160009054906101000a900473ffffffffffffffffffffffffffffffffffffffff1673ffffffffffffffffffffffffffffffffffffffff163373ffffffffffffffffffffffffffffffffffffffff1614151561077257600080fd5b8060058360038110151561078257fe5b01819055505050565b600160009054906101000a900473ffffffffffffffffffffffffffffffffffffffff1673ffffffffffffffffffffffffffffffffffffffff163373ffffffffffffffffffffffffffffffffffffffff161415156107e757600080fd5b600073ffffffffffffffffffffffffffffffffffffffff168173ffffffffffffffffffffffffffffffffffffffff161415151561088c576040517f08c379a00000000000000000000000000000000000000000000000000000000081526004018080602001828103825260118152602001807f6164647265737320696e636f727265637400000000000000000000000000000081525060200191505060405180910390fd5b8073ffffffffffffffffffffffffffffffffffffffff166108fc3073ffffffffffffffffffffffffffffffffffffffff16319081150290604051600060405180830381858888f193505050501580156108e9573d6000803e3d6000fd5b5050565b6000600160009054906101000a900473ffffffffffffffffffffffffffffffffffffffff1673ffffffffffffffffffffffffffffffffffffffff163373ffffffffffffffffffffffffffffffffffffffff1614151561094b57600080fd5b600460008373ffffffffffffffffffffffffffffffffffffffff1673ffffffffffffffffffffffffffffffffffffffff16815260200190815260200160002060009054906101000a900460ff161515610a5e576001600460008473ffffffffffffffffffffffffffffffffffffffff1673ffffffffffffffffffffffffffffffffffffffff16815260200190815260200160002060006101000a81548160ff0219169083151502179055507fd1bba68c128cc3f427e5831b3c6f99f480b6efa6b9e80c757768f6124158cc3f82604051808273ffffffffffffffffffffffffffffffffffffffff1673ffffffffffffffffffffffffffffffffffffffff16815260200191505060405180910390a1600190505b919050565b600160009054906101000a900473ffffffffffffffffffffffffffffffffffffffff1681565b60046020528060005260406000206000915054906101000a900460ff1681565b600080836040518082805190602001908083835b602083101515610ae25780518252602082019150602081019050602083039250610abd565b6001836020036101000a0380198251168184511680821785525050505050509050019150509081526020016040518091039020826040518082805190602001908083835b602083101515610b4b5780518252602082019150602081019050602083039250610b26565b6001836020036101000a038019825116818451168082178552505050505050905001915050908152602001604051809103902060009054906101000a900460ff16905092915050565b6040805190810160405280600781526020017f4f776e61626c65000000000000000000000000000000000000000000000000008152506040805190810160405280600581526020017f312e392e30000000000000000000000000000000000000000000000000000000815250610c0a8282610aa9565b151515610c1657600080fd5b82600160006101000a81548173ffffffffffffffffffffffffffffffffffffffff021916908373ffffffffffffffffffffffffffffffffffffffff1602179055507fdd117a11c22118c9dee4b5a67ce578bc44529dce21ee0ccc439588fbb9fb4ea38282604051808060200180602001838103835285818151815260200191508051906020019080838360005b83811015610cbe578082015181840152602081019050610ca3565b50505050905090810190601f168015610ceb5780820380516001836020036101000a031916815260200191505b50838103825284818151815260200191508051906020019080838360005b83811015610d24578082015181840152602081019050610d09565b50505050905090810190601f168015610d515780820380516001836020036101000a031916815260200191505b5094505050505060405180910390a160016000836040518082805190602001908083835b602083101515610d9a5780518252602082019150602081019050602083039250610d75565b6001836020036101000a0380198251168184511680821785525050505050509050019150509081526020016040518091039020826040518082805190602001908083835b602083101515610e035780518252602082019150602081019050602083039250610dde565b6001836020036101000a038019825116818451168082178552505050505050905001915050908152602001604051809103902060006101000a81548160ff021916908315150217905550505050565b6000808210158015610e65575060028211155b1515610ed9576040517f08c379a000000000000000000000000000000000000000000000000000000000815260040180806020018281038252601a8152602001807f547970652063616e6e6f74206265206d6f7265207468616e203200000000000081525060200191505060405180910390fd5b600582600381101515610ee857fe5b01543410151515610f61576040517f08c379a00000000000000000000000000000000000000000000000000000000081526004018080602001828103825260138152602001807f496e73756666696369656e74206571756974790000000000000000000000000081525060200191505060405180910390fd5b610f69611465565b90506001811415610fcc573373ffffffffffffffffffffffffffffffffffffffff166108fc600584600381101515610f9d57fe5b01549081150290604051600060405180830381858888f19350505050158015610fca573d6000803e3d6000fd5b505b7fa9bb0fa194e939eadb11be8d62dd4a16e0f5e89f37fb73fa7f0f8446f1abba61816040518082815260200191505060405180910390a15050565b6040805190810160405280600881526020017f52616365727341490000000000000000000000000000000000000000000000008152506040805190810160405280600581526020017f312e302e3000000000000000000000000000000000000000000000000000000081525061107d8282610aa9565b15151561108957600080fd5b61109233610b94565b674563918244f40000600560006003811015156110ab57fe5b018190555067d02ab486cedc0000600560016003811015156110c957fe5b01819055506802b5e3af16b1880000600560026003811015156110e857fe5b01819055507fdd117a11c22118c9dee4b5a67ce578bc44529dce21ee0ccc439588fbb9fb4ea38282604051808060200180602001838103835285818151815260200191508051906020019080838360005b83811015611154578082015181840152602081019050611139565b50505050905090810190601f1680156111815780820380516001836020036101000a031916815260200191505b50838103825284818151815260200191508051906020019080838360005b838110156111ba57808201518184015260208101905061119f565b50505050905090810190601f1680156111e75780820380516001836020036101000a031916815260200191505b5094505050505060405180910390a160016000836040518082805190602001908083835b602083101515611230578051825260208201915060208101905060208303925061120b565b6001836020036101000a0380198251168184511680821785525050505050509050019150509081526020016040518091039020826040518082805190602001908083835b6020831015156112995780518252602082019150602081019050602083039250611274565b6001836020036101000a038019825116818451168082178552505050505050905001915050908152602001604051809103902060006101000a81548160ff0219169083151502179055505050565b600160009054906101000a900473ffffffffffffffffffffffffffffffffffffffff1673ffffffffffffffffffffffffffffffffffffffff163373ffffffffffffffffffffffffffffffffffffffff1614151561134357600080fd5b600073ffffffffffffffffffffffffffffffffffffffff168173ffffffffffffffffffffffffffffffffffffffff161415151561137f57600080fd5b8073ffffffffffffffffffffffffffffffffffffffff16600160009054906101000a900473ffffffffffffffffffffffffffffffffffffffff1673ffffffffffffffffffffffffffffffffffffffff167f8be0079c531659141344cd1fd0a4f28419497f9722a3daafe3b4186f6b6457e060405160405180910390a380600160006101000a81548173ffffffffffffffffffffffffffffffffffffffff021916908373ffffffffffffffffffffffffffffffffffffffff16021790555050565b600260009054906101000a900473ffffffffffffffffffffffffffffffffffffffff1681565b600080611474600160646114cb565b905060058111151561148957600191506114c7565b600f8111151561149c57600291506114c7565b6023811115156114af57600391506114c7565b6037811115156114c257600491506114c7565b600591505b5090565b6000826001848403016114dc611508565b604051808281526020019150506040518091039020600190048115156114fe57fe5b0601905092915050565b60008060008060014303925082406001900491507f028f5c28f5c28f5c28f5c28f5c28f5c28f5c28f5c28f5c28f5c28f5c28f5c28f9050808281151561154a57fe5b0460643373ffffffffffffffffffffffffffffffffffffffff1681151561156d57fe5b06016003600082825401925050819055506003549350505050905600a165627a7a72305820185a4bfa7b8876a8d8ac3d8451d73c23918f06ab43c5b74271bade4235adbbe70029",
  "source": "pragma solidity ^0.4.23;\n\nimport \"../Tools/Random.sol\";\nimport \"../Access/TreasurerMigratable.sol\";\nimport \"../Access/WhitelistMigratable.sol\";\n\ncontract TournamentAI is TreasurerMigratable, Random, WhitelistMigratable {\n\n    // EVENTS\n    event Result(uint256 place);\n\n    uint256[3] bidType;\n\n\n    function init() public isInitializer(\"RacersAI\", \"1.0.0\") {\n        Ownable.initialize(msg.sender);\n\n        bidType[0] = 5000000000000000000;\n        bidType[1] = 15000000000000000000;\n        bidType[2] = 50000000000000000000;\n    }\n\n\n    function setBid(uint256 _type, uint256 _bid) public onlyOwner {\n        bidType[_type] = _bid;\n    }\n\n\n    function runTournament(uint256 _gameType) public payable {\n        require(_gameType >= 0 && _gameType <= 2, \"Type cannot be more than 2\");\n        require(msg.value >= bidType[_gameType], \"Insufficient equity\");\n\n        uint256 nightstand = _gameProccess();\n\n        if (nightstand == 1) {\n            msg.sender.transfer(bidType[_gameType]);\n        }\n        emit Result(nightstand);\n    }\n\n\n    function () public payable {\n        revert();\n    }\n\n\n    function withdrawBalance(address _wallet) public onlyOwner {\n        require(_wallet != address(0), \"address incorrect\");\n        _wallet.transfer(address(this).balance);\n    }\n\n\n    function _gameProccess() internal returns(uint256) {\n        uint256 result = _randRange(1,100);\n\n        if (result <= 5) {\n            return 1;\n        }\n        if (result <= 15) {\n            return 2;\n        }\n        if (result <= 35) {\n            return 3;\n        }\n        if (result <= 55) {\n            return 4;\n        }\n        else {\n            return 5;\n        }\n    }\n}",
  "sourcePath": "/Users/ivanborisov/Desktop/work/0xGames/crypto-racers-tron/contracts/TournamentAI/TournamentAI.sol",
  "compiler": {
    "name": "solc",
    "version": "0.4.24-develop.2018.8.28+commit.3ba0cdec.mod.Emscripten.clang"
  },
  "schemaVersion": "2.0.1",
  "updatedAt": "2018-12-28T16:17:19.344Z"
}